:020000040000FA
:06000000B0EF1FF012003A
:06100000B0EF1FF012002A
:061008005EEF18F012007B
:0610180065EF18F0120064
:06102A000200E03F00009F
:10103000C40000000A000000C63F0000A00000003D
:041040001A00000092
:0C104400D9CFE6FFE1CFD9FFE652A09A19
:101050006A6A686A160E6F6E9F0E6B6E7B0E696E03
:101060006D8C6E6A010EE66EE66AE66A710EE66ED9
:101070000F0EE66E11EC1FF00B6E050EE15E0B50CD
:101080006D9CDF6ADF500B6E0C6A080E0B5C000E65
:101090000C5810E2DF50040DF3CFE9FFF4CFEAFF64
:1010A000000EE926040EEA22EE6AEE6AEE6AEE6AA5
:1010B000DF2AE8D7160E706E68A602D06896FCD7B5
:1010C0000001736B786B796B7A6B6D98DF6A020E37
:1010D000DF5C18E2EA6ADF34FE0BEA36E96E6B0E7B
:1010E000E926000EEA22EE6AED6AEA6ADF34FE0BB8
:1010F000EA36E96E670EE926000EEA22EE6AED6A2C
:10110000DF2AE5D70001080E6B6F040E6C6F616B70
:10111000606BE552E552E7CFD9FF1200D9CFE6FF69
:10112000E1CFD9FFE652000160510FE16D6A696AB3
:10113000160E6F6E9F0E6B6E7B0E696E6DB602D0D3
:101140006D86FCD70001010E606F600508E16DBA85
:1011500006D0686A696A69806988020E606F6850A3
:10116000040B05E06950040B02E06894B3D86DB23B
:101170005BD06850010B12E06950010B0FE062DF99
:101180000001040E606F0401200E026F040E036F55
:10119000080E016F006B8C0E001368906850100BE6
:1011A00005E06950100B02E083D868986850400B46
:1011B00013E06950400B10E0010EE66EE66A000E87
:1011C000E66EE66A730EE66EE66A85EC1DF00B6E5F
:1011D000060EE15E0B50689C6850200B04E06950DD
:1011E000200B01E04CD86850020B13E06950020B51
:1011F00010E0010EE66EE66A000EE66EE66AE6684C
:101200007F0EE66E85EC1DF00B6E060EE15E0B5058
:101210006A6A040E0001E76E6019E8AE02D0E73496
:1012200002D0E750605D02E2A19A24D069A621D0E5
:10123000DF6A040EDF5C1DE268A61BD06CCF80F075
:101240006896780E0001801502E159D810D0000E82
:10125000E66EE66A800EE66E000EE66E720EE66ED2
:10126000E66A85EC1DF00B6E060EE15E0B50DF2A80
:10127000E0D7A19AE552E552E7CFD9FF120070A05E
:1012800015D063C0E9FF64C0EAFFEF5080080DE1AC
:101290006BC0E9FF6CC0EAFFEF50840806E163C051
:1012A000E9FF64C0EAFF8C0EEF6E7090689A12003E
:1012B000698468986D82000EE66EE66AE66EE66AFC
:1012C000750EE66EE66A85EC1DF00B6E060EE15EAD
:1012D0000B501200000EE66EE66AE66EE66A740EC9
:1012E000E66EE66A85EC1DF00B6E060EE15E0B50B5
:1012F0006D92699468A402D06894FCD71200D9CF8B
:10130000E6FFE1CFD9FFE652FD0E000180155AE15C
:101310007E0E8015E8407F0B040DF3CF63F0F4CF11
:1013200064F0000E6327040E642363C065F064C09C
:1013300066F0657563C0E9FF64C0EAFFEF503C0BDF
:10134000E842E8420D083CE163C0E9FF64C0EAFFFF
:10135000020EE926000EEA22EECF0BF0EFCF0CF0E2
:10136000280E0B182BE1040E0C1828E163C0E9FFCE
:1013700064C0EAFF020EE926000EEA22200EEE6E9D
:10138000040EED6EDF6ADF500B6E0C6A080E0B5C0C
:10139000000E0C5813E2DF50EA6A280FE96E040EC3
:1013A000EA22EF50E66EDF50EA6A200FE96E040E83
:1013B000EA22E552E750EF6EDF2AE5D70DD807D0D5
:1013C0002ED805D0FD0E8015040801E14ED8E55257
:1013D000E552E7CFD9FF12006BC0E9FF6CC0EAFF0E
:1013E000EF50800B05E06BC0E9FF6CC0EAFFEF6ACD
:1013F00000016F6B706B746B756B736BB2D8000E02
:10140000E66EE66AE66EE66A030EE66EE66A85EC6E
:101410001DF00B6E060EE15E0B5046EF0CF0020E57
:101420000001705D02E1A1EF0DF069D8000181516A
:101430001AE165C0E9FF66C0EAFFEE52080EEF6EE2
:1014400065C0E9FF66C0EAFF020EE926000EEA2247
:10145000200EEE6E040EED6E65C0E9FF66C0EAFF79
:101460008C0EEF6E1200816B1200D9CFE6FFE1CF38
:10147000D9FFE6526BC0E9FF6CC0EAFFEF50400BAA
:1014800001E0010EDF6E00016B75080E605D09E181
:1014900022C46EFF6E50000802E2100E01D0040E4E
:1014A000606F700526E16BC0E9FF6CC0EAFF020EB9
:1014B000E926000EEA22280EEE6E040EED6EB8DA72
:1014C000020E00016F5D06E16BC0E9FF6CC0EAFF30
:1014D000840E0DD0DF5006E16BC0E9FF6CC0EAFF5F
:1014E000C80E05D06BC0E9FF6CC0EAFF880EEF6E36
:1014F00001D005D8E552E552E7CFD9FF1200D9CF88
:10150000E6FFE1CFD9FF020EE1260001706B6BC050
:10151000E9FF6CC0EAFFEF6A040E6B190B6E6CC03A
:101520000CF0DE6E6CC0DDFFDECFE9FFDDCFEAFF41
:10153000EF6A78AF0CD07B517C1107E005D07CC0FE
:10154000FAFF00017B51F96EFADF0001789F020E6D
:10155000E15C02E2E16AE552E16EE552E7CFD9FFD4
:10156000120004012051600BE842E842E842E842E0
:10157000E842000901E0120021510C0A50E00B0A78
:101580003FE00C0A31E0010A22E00B0A1EE0020AE9
:101590001CE0030A18E0080A10E0010A0CE00F0A38
:1015A00008E0030A01E012000001738F080E606F6B
:1015B000120095EF0BF03DEF0EF00001610E716F20
:1015C000000E726F0CD0ECEF0BF010EF0BF024510B
:1015D0000001716F726B620E7127000E72237381AE
:1015E000010E746F738F12000001738F0401245178
:1015F000EA6A620FE96E000EEA2222C4EFFF1200CF
:10160000000EE66EE66AE66EE66A020EE66EE66AD0
:1016100085EC1DF00B6E060EE15E0B501200120001
:10162000D9CFE6FFE1CFD9FF040EE1260401220560
:1016300010E120511F0B00090CE10001738F030E14
:101640000401215D04E10001010E7F6F02D0000161
:101650007F6B040122515FE120511F0B02085BE107
:1016600024510F0B000957E00001738F040124BFC0
:101670000BD024510F0BE96EEA6AD890E936EA36AE
:10168000670EE926000E0AD024510F0BE96EEA6AB4
:10169000D890E936EA366B0EE926000EEA22EECF44
:1016A000DEFFEDCFDDFF030E215D06E1DECFE9FFBA
:1016B000DDCFEAFF840E2ED024510F0B0C6A700F81
:1016C0000B6E0F0E0C22020E0BC0DBFF030E0CC0C4
:1016D000DBFF020EDBCFE9FF030EDBCFEAFFEF906B
:1016E00024AF0CD0DECFE9FFDDCFEAFFEF6ADF7475
:1016F000DECFE9FFDDCFEAFF400E0CD0DECFE9FF01
:10170000DDCFEAFF880EEF6EDF74DECFE9FFDDCFBD
:10171000EAFFC80EEF6E040EE15C02E2E16AE552F8
:10172000E16EE552E7CFD9FF1200800E0401205D83
:1017300052E10001C00E736F04012351030A29E036
:10174000010A09E0030A45E10001680E716F3C0ED1
:10175000726F120E38D02251F66EF76AD890F636B4
:10176000F7360A0EF6263D0EF7220900F5CF71F086
:101770000A00F5CF72F0020E0001F76A7125F66ECD
:101780007251F7220900F5CF74F00A00F5CF75F019
:101790001200030E225D1AE22251F66EF76AD8900B
:1017A000F636F7360C0EF6263D0EF7220900F5CF79
:1017B00071F00A00F5CF72F071C0F6FF72C0F7FF4A
:1017C0000800F5500001746F756B12000001736B17
:1017D00012000001736B1200D9CFE6FFE1CFD9FFF1
:1017E000020EE1260401286B296B20511F0B020A0F
:1017F00011E0030A0CE0010A35E10001738F0401D6
:10180000288100017F052EE1040128832BD00001EF
:10181000738F28D00001738F040124BF0BD0245193
:101820000F0BE96EEA6AD890E936EA36670EE926C8
:10183000000E0AD024510F0BE96EEA6AD890E936FF
:10184000EA366B0EE926000EEA22EECFDEFFEDCF80
:10185000DDFFDECFE9FFDDCFEAFFEF50040B02E052
:10186000010E286F000173AF07D0280E716F040EB0
:10187000726F7381020E746F020EE15C02E2E16A24
:10188000E552E16EE552E7CFD9FF12006D980001F5
:1018900073BF47D078AF26D0020E706F6BC0E9FFE0
:1018A0006CC0EAFFEE52EF6A6BC0E9FF6CC0EAFF62
:1018B000C80EEF6E65C0E9FF66C0EAFFEE52080E83
:1018C000EF6E65C0E9FF66C0EAFF020EE926000E72
:1018D000EA22280EEE6E040EED6E65C0E9FF66C0CA
:1018E000EAFF7AD065C0E9FF66C0EAFFEE52080E53
:1018F000EF6E65C0E9FF66C0EAFF020EE926000E42
:10190000EA22200EEE6E040EED6E65C0E9FF66C0A1
:10191000EAFF8C0EEF6E6BC0E9FF6CC0EAFF840E2D
:101920005CD078BF84D0040120AF59D0000174513D
:101930000401265D000175510401275904E226C403
:1019400074F027C475F074D80001010E706F65C083
:10195000E9FF66C0EAFFEE52080EEF6E65C0E9FFD0
:1019600066C0EAFF020EE926000EEA22200EEE6EA5
:10197000040EED6E65C0E9FF66C0EAFF800EEF6EF3
:10198000816B63C0E9FF64C0EAFFEE52080EEF6EA0
:1019900063C0E9FF64C0EAFF020EE926000EEA22F6
:1019A000200EEE6E040EED6E63C0E9FF64C0EAFF28
:1019B000840EEF6E010E816F6BC0E9FF6CC0EAFF11
:1019C000020EE926000EEA22280EEE6E040EED6EDF
:1019D0006BC0E9FF6CC0EAFFC80EEF6E1200000199
:1019E000020E706F6BC0E9FF6CC0EAFFEE52EF6A47
:1019F0006BC0E9FF6CC0EAFFC80EEF6E65C0E9FF7F
:101A000066C0EAFFEE52080EEF6E65C0E9FF66C0E1
:101A1000EAFF020EE926000EEA22280EEE6E040E00
:101A2000ED6E65C0E9FF66C0EAFFC80EEF6E1200FA
:101A3000D9CFE6FFE1CFD9FF020EE1260001080E63
:101A4000745D000E75590DE274C0DEFF75C0DDFFD8
:101A50006F5102E1010E03D06F0506E1020E6F6FB8
:101A600003D0080EDE6EDD6A6BC0E9FF6CC0EAFFD2
:101A7000EF926BC0E9FF6CC0EAFFEF906BC0E9FF2B
:101A80006CC0EAFF010EDB50EF126BC0E9FF6CC0C7
:101A9000EAFFEE52DFCFEFFF000EDB50745F010E66
:101AA000DB50755B280E7D6F040E7E6F73B120D006
:101AB000D9CFE9FFDACFEAFFEE50ED1038E071C080
:101AC000F6FF72C0F7FF712B000E72230800F5506D
:101AD000E66E7DC0E9FF7EC0EAFF7D2B000E7E230F
:101AE000E552E750EF6EDF06010EE2E2DB06E0D7DB
:101AF000D9CFE9FFDACFEAFFEE50ED1018E071C060
:101B0000E9FF72C0EAFF712B000E7223EF50E66E00
:101B10007DC0E9FF7EC0EAFF7D2B000E7E23E552EB
:101B2000E750EF6EDF06010EE3E2DB06E1D7020EBF
:101B3000E15C02E2E16AE552E16EE552E7CFD9FFEE
:101B40001200D9CFE6FFE1CFD9FF020EE12663C034
:101B5000E9FF64C0EAFFEE52EFCFDFFFDFCF0BF00B
:101B60000B500001795D000E7A5902E279C0DFFF67
:101B7000DF500B6E0C6AE850795D796F0C507A5922
:101B80007A6F010EDB6ADF50F36E010EDBCFF4FFDC
:101B9000F350F45C16E2010EDB50EA6A280FE96E9E
:101BA000040EEA22EF50E66E76C0E9FF77C0EAFF46
:101BB000762B000E7723E552E750EF6E010EDB2AFD
:101BC000E2D7000ED8807955000E7A5527E265C01D
:101BD000E9FF66C0EAFFEE52080EEF6E65C0E9FF4E
:101BE00066C0EAFF020EE926000EEA22280EEE6E1B
:101BF000040EED6E63C0E9FF64C0EAFFEF50400BD6
:101C000006E165C0E9FF66C0EAFFC80E05D065C001
:101C1000E9FF66C0EAFF880EEF6E25D065C0E9FFD8
:101C200066C0EAFFEE52080EEF6E65C0E9FF66C0BF
:101C3000EAFF020EE926000EEA22200EEE6E040EE6
:101C4000ED6E65C0E9FF66C0EAFF840EEF6E7B5162
:101C50007C1107E005D07CC0FAFF00017B51F96ED2
:101C6000FADF0001789F020EE15C02E2E16AE552D0
:101C7000E16EE552E7CFD9FF1200D9CFE6FFE1CF01
:101C8000D9FFE6520001738F010EE66EE66AE66A3E
:101C9000710EE66E0F0EE66E11EC1FF00B6E050E68
:101CA000E15E0B50DF6ADF500B6E0C6A080E0B5CB6
:101CB000000E0C5810E2DF50040DF3CFE9FFF4CF13
:101CC000EAFF000EE926040EEA22EE6AEE6AEE6AE8
:101CD000EE6ADF2AE8D76D8C010EE66EE66AE66AE8
:101CE000620EE66E000EE66E11EC1FF00B6E050E36
:101CF000E15E0B506D9C0001080E6B6F040E6C6F63
:101D0000000E636F040E646F63C065F0666F22C4DB
:101D100061F0615102E1100E12D0010EE66EE66A2A
:101D2000610EE66E000EE66E010EE66EE66A85EC6A
:101D30001DF00B6E060EE15E0B500001200E606F71
:101D4000E552E552E7CFD9FF1200D9CFE6FFE1CF48
:101D5000D9FF020EE126000EDE6E040EDD6EFD0ED2
:101D6000DB50E8240D6EFE0EDB50040DF3500D2405
:101D7000040DF3500B6E0C6A020E0F0B05E0D890A9
:101D80000C320B32E806FBE1D8900B360C36D890BB
:101D90000B360C36D9CFE9FFDACFEAFF0B50EE262F
:101DA0000C50ED22DECFE9FFDDCFEAFFEF9EFD0E06
:101DB000DB500AE1FE0EEA6ADB34FE0BEA36E96E1E
:101DC000670EE926000E09D0FE0EEA6ADB34FE0B30
:101DD000EA36E96E6B0EE926000EEA22DECFEEFF50
:101DE000DDCFEDFFDECFE9FFDDCFEAFFEF9CDECFF9
:101DF000E9FFDDCFEAFF040EE926000EEA22EF8CB0
:101E0000020EE15C02E2E16AE552E16EE552E7CFE3
:101E1000D9FF1200D9CFE6FFE1CFD9FF020EE126AC
:101E2000FE0EDB500C6A700F0B6E0F0E0C220BC0F7
:101E3000DEFF0CC0DDFFDECFE9FFDDCFEAFFFD0EE8
:101E4000DBCFEFFFDBA407D0E66AFE0EDBCFE6FFB9
:101E50007CDFE552E552FD0EDBA208D0010EE66EF6
:101E6000FE0EDBCFE6FF71DFE552E552020EE15CCC
:101E700002E2E16AE552E16EE552E7CFD9FF1200D6
:101E8000D9CFE6FFE1CFD9FF020EE126FE0EDB50EF
:101E900020E165C0E9FF66C0EAFFEE52080EEF6E72
:101EA00065C0E9FF66C0EAFF020EE926000EEA22DD
:101EB000200EEE6E040EED6E65C0E9FF66C0EAFF0F
:101EC0008C0EEF6E6BC0E9FF6CC0EAFF840EEF6E04
:101ED0003BD0FD0EDB50E8240D6EFE0EDB50040DF2
:101EE000F3500D24040DF3CF0BF0F4CF0CF0000EE3
:101EF0000B26040E0C220BC0DEFF0CC0DDFF840E8F
:101F0000DECFE9FFDDCFEAFFE850EF12FD0EDB5038
:101F1000E8240D6EFE0EDB50040DF3500D24010F6E
:101F2000040DF3CF0BF0F4CF0CF0000E0B26040ED3
:101F30000C220BC0DEFF0CC0DDFF840EDECFE9FFFC
:101F4000DDCFEAFFE850EF12020EE15C02E2E16A47
:101F5000E552E16EE552E7CFD9FF1200D9CFE6FF97
:101F6000E1CFD9FF020EE126FD0EDB500AE0FE0EA6
:101F7000EA6ADB34FE0BEA36E96E6B0EE926000EE8
:101F800009D0FE0EEA6ADB34FE0BEA36E96E670E14
:101F9000E926000EEA22EECFDEFFEDCFDDFFD9CF3E
:101FA000E9FFDACFEAFFEE50ED1003E1F36AF46ADD
:101FB00044D0DECFE9FFDDCFEAFF020EE926000EB6
:101FC000EA22FB0EDBCFEEFFFC0EDBCFEDFFDECF18
:101FD000E9FFDDCFEAFFEE52FA0EDBCFEFFF400E56
:101FE000DECFE9FFDDCFEAFFE850EF16880EDECF47
:101FF000E9FFDDCFEAFFE850EF12FD0EDB500AE00B
:10200000FE0EEA6ADB34FE0BEA36E96E6B0EE92659
:10201000000E09D0FE0EEA6ADB34FE0BEA36E96EEA
:10202000670EE926000EEA22EF74DECF0BF0DDCF5B
:102030000CF00BC0F3FF0CC0F4FF020EE15C02E2F7
:10204000E16AE552E16EE552E7CFD9FF1200D9CF40
:10205000E6FFE1CFD9FF6DA84ED0FE0EEA6ADB3471
:10206000FE0BEA36E96E6B0EE926000EEA22EE5010
:10207000EFCFEAFFE96E400EEE16EE6AEE6AEE6A08
:10208000FE0EEA6ADB34FE0BEA36E96E6B0EE926D9
:10209000000EEA22EE50EFCFEAFFE96EEE7CFE0E74
:1020A000EA6ADB34FE0BEA36E96E6B0EE926000EB7
:1020B000EA22EF74400E0B6EFE0EEA6ADB34FE0B72
:1020C000EA36E96E6B0EE926000EEA22EE50EFCFFB
:1020D000EAFFE96E0B50EF16FE0EEA6ADB34FE0BE8
:1020E000EA36E96E6B0EE926000EEA22EE50EFCFDB
:0E20F000EAFFE96EEF7CE552E7CFD9FF120060
:0220FE00800E52
:10210000E66E080EE66E5EEC1FF0E552E552770EC5
:10211000C86E1200E0EF1FF0F18E938481949394C7
:1021200081940C0EE66E90EC1FF0E5529384120041
:10213000D9CFE6FFE1CFD9FF020EE126DF6AECDF5F
:10214000C580C5B0FED7220EE66E30EC18F0E55221
:10215000E76E010EE7CFDBFFE66E30EC18F0E552DC
:10216000E76E010EE7CFDBFFD10EE66E30EC18F024
:10217000E552E76E010EE7CFDBFF050EE66E30ECB1
:1021800018F0E552E76E010EE7CFDBFFC584C5B45A
:10219000FED7C580C5B0FED7230EE66E30EC18F032
:1021A000E552E76E010EE7CFDBFFE66E44EC18F078
:1021B000E552E76E010EE7CFDBFFC584C5B4FED75D
:1021C000E4EC17F0800BFCE0C580C5B0FED7220E12
:1021D000E66E30EC18F0E552E76E010EE7CFDBFF5C
:1021E000100EE66E30EC18F0E552E76E010EE7CF08
:1021F000DBFFC584C5B4FED70C0EE66EBEEC1FF047
:10220000E5520C0EE66EBEEC1FF0E5520C0EE66ECB
:10221000BEEC1FF0E552C580C5B0FED7230EE66EBA
:1022200030EC18F0E552E76E010EE7CFDBFFE66A0F
:1022300044EC18F0E552E76E010EE7CFDBFFE66AEB
:1022400044EC18F0E552E76E010EE7CFDBFFE66ADB
:1022500044EC18F0E552E76E010EE7CFDBFFE66ACB
:1022600044EC18F0E552E76E010EE7CFDBFFE66ABB
:1022700044EC18F0E552E76E010EE7CFDBFFE66AAB
:1022800044EC18F0E552E76E010EE7CFDBFFE66A9B
:1022900044EC18F0E552E76E010EE7CFDBFFE66A8B
:1022A00044EC18F0E552E76E010EE7CFDBFFE66E77
:1022B00044EC18F0E552E76E010EE7CFDBFFC58472
:1022C000C5B4FED7E4EC17F0800BFCE0C90EE66E57
:1022D000E66A010EE66EE66A95EC17F0E552E55205
:1022E000E552E552E66A800EE66E010EE66E020EDB
:1022F000E66E95EC17F0E552E552E552E552010E17
:10230000E66EE66A020EE66EE66E95EC17F0E552B2
:10231000E552E552E552FE0EDBCFE6FFE66AE66ADD
:10232000400EE66E95EC17F0E552E552E552E552A7
:10233000030EE66EE66A020EE66E310EE66E95EC70
:1023400017F0E552E552E552E552E66AE66AE66ABA
:10235000310EE66E95EC17F0E552E552E552E55286
:10236000E66AE66AE66A320EE66E95EC17F0E5522A
:10237000E552E552E5527F0EE66EE66A010EE66E24
:10238000320EE66E95EC17F0E552E552E552E55255
:10239000E66AE66A020EE66E320EE66E95EC17F01D
:1023A000E552E552E552E5527F0EE66EE66A030E0F
:1023B000E66E320EE66E95EC17F0E552E552E55208
:1023C000E552E66AE66A040EE66E320EE66E95ECBB
:1023D00017F0E552E552E552E5520A0EE66EE66A5E
:1023E000030EE66E330EE66E95EC17F0E552E552FD
:1023F000E552E552FF0EE76EFC0EDBCF0BF0FD0E53
:10240000DBCF0CF0E7500B160C6A0B50E66EFC0E9F
:10241000DBCF0DF0FD0EDBCF0EF00EC00DF00E6A1F
:102420000D50E66EE66A340EE66E95EC17F0E55256
:10243000E552E552E552FF0EE76EFA0EDBCF0BF0E8
:10244000FB0EDBCF0CF0E7500B160C6A0B50E66E60
:10245000FA0EDBCF0DF0FB0EDBCF0EF00EC00DF051
:102460000E6A0D50E66E010EE66E340EE66E95ECC9
:1024700017F0E552E552E552E552FF0EE76EF80E11
:10248000DBCF0BF0F90EDBCF0CF0E7500B160C6A2C
:102490000B50E66EF80EDBCF0DF0F90EDBCF0EF031
:1024A0000EC00DF00E6A0D50E66E020EE66E340E92
:1024B000E66E95EC17F0E552E552E552E552050E51
:1024C000E66EE66A030EE66E340EE66E95EC17F0E5
:1024D000E552E552E552E552190EE66EE66A040E43
:1024E000E66E340EE66E95EC17F0E552E552E552D5
:1024F000E552DF500B6E020EE15C02E2E16AE5524A
:10250000E16E0B50E552E7CFD9FF1200D9CFE6FFBD
:10251000E1CFD9FF020EE126DF6AFEDDC580C5B03E
:10252000FED7220EE66E30EC18F0E552E76E010E93
:10253000E7CFDBFFE66E30EC18F0E552E76E010EF8
:10254000E7CFDBFFD00EE66E30EC18F0E552E76E19
:10255000010EE7CFDBFF050EE66E30EC18F0E5521A
:10256000E76E010EE7CFDBFFC584C5B4FED7C5809B
:10257000C5B0FED7230EE66E30EC18F0E552E76EDC
:10258000010EE7CFDBFFE66E44EC18F0E552E76E94
:10259000010EE7CFDBFFC584C5B4FED7E4EC17F02E
:1025A000800BFCE0C580C5B0FED7220EE66E30EC95
:1025B00018F0E552E76E010EE7CFDBFF100EE66E76
:1025C00030EC18F0E552E76E010EE7CFDBFFC58473
:1025D000C5B4FED70C0EE66EBEEC1FF0E5520C0E35
:1025E000E66EBEEC1FF0E5520C0EE66EBEEC1FF080
:1025F000E552C580C5B0FED7230EE66E30EC18F06C
:10260000E552E76E010EE7CFDBFFE66A44EC18F017
:10261000E552E76E010EE7CFDBFFE66A44EC18F007
:10262000E552E76E010EE7CFDBFFE66A44EC18F0F7
:10263000E552E76E010EE7CFDBFFE66A44EC18F0E7
:10264000E552E76E010EE7CFDBFFE66A44EC18F0D7
:10265000E552E76E010EE7CFDBFFE66A44EC18F0C7
:10266000E552E76E010EE7CFDBFFE66A44EC18F0B7
:10267000E552E76E010EE7CFDBFFE66A44EC18F0A7
:10268000E552E76E010EE7CFDBFFE66E44EC18F093
:10269000E552E76E010EE7CFDBFFC584C5B4FED778
:1026A000E4EC17F0800BFCE0C90EE66EE66A010E62
:1026B000E66EE66A95EC17F0E552E552E552E55212
:1026C000E66A800EE66E010EE66E020EE66E95EC90
:1026D00017F0E552E552E552E552010EE66EE66A64
:1026E000020EE66EE66E95EC17F0E552E552E55205
:1026F000E552FE0EDBCFE6FFE66AE66A400EE66EC6
:1027000095EC17F0E552E552E552E552010EE66E02
:10271000E66AE66A110EE66E95EC17F0E552E552B0
:10272000E552E552E66AE66A010EE66E400EE66E96
:1027300095EC17F0E552E552E552E552E66AE66A95
:10274000E66A180EE66E95EC17F0E552E552E55292
:10275000E552E66AE66A010EE66E180EE66E95EC44
:1027600017F0E552E552E552E552140EE66EE66AC0
:10277000080EE66E110EE66ED8DBE552E552E55224
:10278000E5528F0EE66EE66AE66A120EE66ECDDB65
:10279000E552E552E552E5527F0EE66EE66A010E1D
:1027A000E66E120EE66EC1DBE552E552E552E552E9
:1027B000E66AE66A020EE66E120EE66EB6DBE552D9
:1027C000E552E552E5527F0EE66EE66A030EE66ECE
:1027D000120EE66EAADBE552E552E552E552E66AD4
:1027E000E66A040EE66E120EE66E9FDBE552E552D7
:1027F000E552E552810EE66EE66A070EE66E120EAF
:10280000E66E93DBE552E552E552E552100EE66EB8
:10281000E66A020EE66E130EE66E87DBE552E552BF
:10282000E552E552040EE66EE66A030EE66E130EFE
:10283000E66E7BDBE552E552E552E552FF0EE76EB0
:10284000FC0EDBCF0BF0FD0EDBCF0CF0E7500B16D0
:102850000C6A0B50E66EFC0EDBCF0DF0FD0EDBCFED
:102860000EF00EC00DF00E6A0D50E66EE66A140E04
:10287000E66E5BDBE552E552E552E552FF0EE76E90
:10288000FA0EDBCF0BF0FB0EDBCF0CF0E7500B1694
:102890000C6A0B50E66EFA0EDBCF0DF0FB0EDBCFB1
:1028A0000EF00EC00DF00E6A0D50E66E010EE66ED3
:1028B000140EE66E3ADBE552E552E552E552FF0EA4
:1028C000E76EF80EDBCF0BF0F90EDBCF0CF0E75024
:1028D0000B160C6A0B50E66EF80EDBCF0DF0F90EFE
:1028E000DBCF0EF00EC00DF00E6A0D50E66E020E3C
:1028F000E66E140EE66E19DBE552E552E552E5523E
:10290000060EE66EE66A030EE66E140EE66E0DDB4C
:10291000E552E552E552E552140EE66EE66A040E03
:10292000E66E140EE66E01DBE552E552E552E55225
:10293000DF500B6E020EE15C02E2E16AE552E16EED
:102940000B50E552E7CFD9FF1200D9CFE6FFE1CF18
:10295000D9FFE652C580C5B0FED7220EE66E80DBF9
:10296000E552DF6E400EE66E7BDBE552DF6EE66A17
:1029700077DBE552DF6EFE0EDBCF0CF00CC00BF008
:102980000C6A0B50E66E6CDBE552DF6EFF0EE76EF5
:10299000FD0EDBCF0BF0E7500B160C6A0B50E66E0A
:1029A0005FDBE552DF6EE66A5BDBE552DF6EE66A0F
:1029B00057DBE552DF6EC584C5B4FED7C580C5B010
:1029C000FED7230EE66E4CDBE552DF6E010EE66E9F
:1029D0005BDBE552DF6EC584C5B4FED73C0EE66E08
:1029E00079EC1FF0E5520C0EE66E79EC1FF0E55223
:1029F0000C0EE66E79EC1FF0E5520C0EE66E79ECEB
:102A00001FF0E552FC0EDB0403E1DEDA010BFDE012
:102A1000E552E552E7CFD9FF1200D9CFE6FFE1CF6B
:102A2000D9FFE652C580C5B0FED7220EE66E18DB90
:102A3000E552DF6E200EE66E13DBE552DF6EE66ACE
:102A40000FDBE552DF6EFE0EDBCF0CF00CC00BF09F
:102A50000C6A0B50E66E04DBE552DF6EFF0EE76E8C
:102A6000FD0EDBCF0BF0E7500B160C6A0B50E66E39
:102A7000F7DAE552DF6EE66AF3DAE552DF6EC58417
:102A8000C5B4FED7C580C5B0FED7230EE66EE8DA22
:102A9000E552DF6E010EE66EF7DAE552DF6EC584B1
:102AA000C5B4FED73C0EE66E79EC1FF0E5520C0E75
:102AB000E66E79EC1FF0E552FC0EDB0403E184DAEC
:102AC000010BFDE0E552E552E7CFD9FF1200D9CF67
:102AD000E6FFE1CFD9FF020EE126C580C5B0FED7E3
:102AE000220EE66EBDDAE552DF6E430EE66EB8DA10
:102AF000E552DF6EE66AB4DAE552DF6EC584C5B42E
:102B0000FED70C0EE66EBEEC1FF0E5520C0EE66E24
:102B1000BEEC1FF0E5520C0EE66EBEEC1FF0E55267
:102B2000C580C5B0FED7230EE66E9ADAE552DF6E99
:102B3000E66AAADAE552DF6E010EDFCFDBFFE66A56
:102B4000A3DAE552DF6EE66A9FDAE552DF6EE66AE7
:102B50009BDAE552DF6EE66A97DAE552DF6EDFCF89
:102B6000C6F0010EE66E90DAE552DF6EDFCFC7F0F9
:102B7000C584C5B4FED7010EDB500B6E020EE15CBE
:102B800002E2E16AE552E16E0B50E552E7CFD9FF70
:102B90001200D9CFE6FFE1CFD9FF020EE126C580B2
:102BA000C5B0FED7220EE66E5BDAE552DF6E230E6D
:102BB000E66E56DAE552DF6EE66A52DAE552DF6E0D
:102BC000C584C5B4FED70C0EE66EBEEC1FF0E55210
:102BD0000C0EE66EBEEC1FF0E5520C0EE66EBEEC7F
:102BE0001FF0E552C580C5B0FED7230EE66E38DA79
:102BF000E552DF6EE66A48DAE552DF6E010EDFCF9E
:102C0000DBFFE66A41DAE552DF6EE66A3DDAE5525D
:102C1000DF6EE66A39DAE552DF6EDF44010B010B45
:102C20000001CC6F7F0EDF14CD6FE66A2DDAE5521E
:102C3000DF6EDFCFCAF0E66A27DAE552DF6EDFCF5C
:102C4000CBF0E66A21DAE552DF6E010EE66E1CDAA1
:102C5000E552DF6EC584C5B4FED7010EDB500B6EA6
:102C6000020EE15C02E2E16AE552E16E0B50E552D0
:102C7000E7CFD9FF1200D9CFE6FFE1CFD9FFE65267
:102C8000C580C5B0FED7220EE66EEAD9E552DF6EEA
:102C9000420EE66EE5D9E552DF6E010EE66EE0D932
:102CA000E552DF6EC584C5B4FED70C0EE66EBEECF1
:102CB0001FF0E5520C0EE66EBEEC1FF0E5520C0E56
:102CC000E66EBEEC1FF0E552C580C5B0FED7230E00
:102CD000E66EC6D9E552DF6EE66AD6D9E552DF6EFA
:102CE000E66AD2D9E552DF6EE66ACED9E552DF6EEA
:102CF000DF500001C46FC56BC56FC46BE66AC4D9F1
:102D0000E552DF6EDF500B6E0C6AE8500001C427FD
:102D10000C50C523E66AB8D9E552DF6EE66AB4D92D
:102D2000E552DF6EE66AB0D9E552DF6E010EE66E5F
:102D3000ABD9E552DF6EC584C5B4FED745D9800B4B
:102D4000FDE0E552E552E7CFD9FF1200D9CFE6FF0B
:102D5000E1CFD9FFE652C580C5B0FED7220EE66EA0
:102D60007FD9E552DF6E220EE66E7AD9E552DF6E2C
:102D7000010EE66E75D9E552DF6EC584C5B4FED787
:102D80000C0EE66EBEEC1FF0E5520C0EE66EBEECCD
:102D90001FF0E5520C0EE66EBEEC1FF0E552C5804A
:102DA000C5B0FED7230EE66E5BD9E552DF6EE66A4C
:102DB0006BD9E552DF6EE66A67D9E552DF6EE66AE7
:102DC00063D9E552DF6EDF500001C86FC96BC96F70
:102DD000C86BE66A59D9E552DF6EDF500B6E0C6A9C
:102DE000E8500001C8270C50C923E66A4DD9E552C6
:102DF000DF6EE66A49D9E552DF6EE66A45D9E552EB
:102E0000DF6E010EE66E40D9E552DF6EC584C5B4B3
:102E1000FED7DAD8800BFDE0E552E552E7CFD9FFC7
:102E20001200D9CFE6FFE1CFD9FFE652C580C5B089
:102E3000FED7220EE66E14D9E552DF6E410EE66E25
:102E40000FD9E552DF6EFE0EDB0402E10C0E01D05D
:102E5000040EE66E05D9E552DF6EE66A01D9E55249
:102E6000DF6EE66AFDD8E552DF6EE66AF9D8E55214
:102E7000DF6EE66AF5D8E552DF6EC584C5B4FED7CD
:102E8000C580C5B0FED7230EE66EEAD8E552DF6EE8
:102E9000010EE66EF9D8E552DF6EC584C5B4FED7E3
:102EA000FD0EDB0403E190D8010BFDE0E552E55295
:102EB000E7CFD9FF1200D9CFE6FFE1CFD9FFE65225
:102EC000C580C5B0FED7220EE66ECAD8E552DF6EC9
:102ED000210EE66EC5D8E552DF6EFE0EDB0402E180
:102EE0000C0E01D0040EE66EBBD8E552DF6EC58431
:102EF000C5B4FED7C580C5B0FED7230EE66EB0D8E8
:102F0000E552DF6E010EE66EBFD8E552DF6EC58476
:102F1000C5B4FED7FD0EDB0403E156D8010BFDE07E
:102F2000E552E552E7CFD9FF1200D9CFE6FFE1CF56
:102F3000D9FFE652C580C5B0FED7220EE66E90D806
:102F4000E552DF6E120EE66E8BD8E552DF6EE66A52
:102F500087D8E552DF6EFE0EDBCFE6FF81D8E55263
:102F6000DF6EFD0EDBCFE6FF7BD8E552DF6EFC0E99
:102F7000DBCFE6FF75D8E552DF6EFB0EDBCFE6FF59
:102F80006FD8E552DF6EC584C5B4FED70C0EE66E71
:102F900079EC1FF0E552E552E552E7CFD9FF120078
:102FA000D9CFE6FFE1CFD9FFFE0EDBCFE6FFE66A21
:102FB000E66A400EE66EB9DFE552E552E552E552AB
:102FC000E552E7CFD9FF1200D9CFE6FFE1CFD9FF15
:102FD000E652C580C5B0FED7220EE66E41D8E55256
:102FE000DF6E140EE66E3CD8E552DF6EC584C5B4C4
:102FF000FED70C0EE66EBEEC1FF0E5520C0EE66E30
:10300000BEEC1FF0E5520C0EE66EBEEC1FF0E55272
:10301000C580C5B0FED7230EE66E22D8E552DF6E1E
:10302000010EE66E31D8E552DF6EC584C5B4FED719
:10303000DF50E552E552E7CFD9FF12001CDE47DD35
:10304000C40E0B6E000E0BC0F3FFF46E12007EDE9A
:10305000A0DDC80E0B6E000E0BC0F3FFF46E120065
:10306000D9CFE6FFE1CFD9FFE652FE0EDBCFE6FF78
:10307000D8EC1EF0E552DF6ED9EC1FF0DF50E552C0
:10308000E552E7CFD9FF1200D9CFE6FFE1CFD9FF54
:10309000E652CCEC1FF0DF6EFE0EDB5005E1C59A68
:1030A000C588C5A805D0FDD7C58AC588C5B8FED7CF
:0C30B000DF50E552E552E7CFD9FF1200D7
:0430BC00DACFE4FF84
:1030C000E652E552E5CFDAFF1100D8CFE4FFE0CFBA
:1030D000E4FFE46EDACFE4FFE652E552E5CFDAFF33
:1030E000E550E5CFE0FFE5CFD8FF100004D88EEC27
:1030F00008F0CBD8FCD70F0EC11202D822EF08F08F
:103100000001A66BA76BA86BA96B896A8A6A8B6A98
:10311000926A030E936E946A0F0EC112F18E000E26
:10312000E66EE66A39EC1FF0E552E5520001876F62
:10313000050EE66EE66A39EC1FF0E552E552000135
:10314000926F8E0E936F000E946F030EE66EE66A1A
:1031500039EC1FF0E552E552E66E010E0001EA6A15
:103160009325E96E9451EA22E552E750EF6E040E82
:10317000E66EE66A39EC1FF0E552E55293C0E9FFCE
:1031800094C0EAFFEF6E0001900E936F000E946FF3
:10319000010EE66EE66A39EC1FF0E552E552E66E86
:1031A000010E0001EA6A9325E96E9451EA22E55284
:1031B000E750EF6E020EE66EE66A39EC1FF0E5525C
:1031C000E55293C0E9FF94C0EAFFEF6E7FEC10F088
:1031D000000187512BE1090EE66EE66AAE0EE66E3F
:1031E000060EE66E0A0EE66E020EE66E92C0E6FF70
:1031F00098EC10F00B6E070EE15E0B500001080E0C
:103200008E5D020E8F5906E3AE0ED8808E55060EE7
:103210008F5504E2080E8E6F020E8F6FE66A8EC025
:10322000E6FF8FC0E6FFA5EC14F02BD0010E876FF0
:103230000A0EE66EE66A280EE66E230EE66EB00E05
:10324000E66E1D0EE66E92C0E6FF86EC12F00B6E87
:10325000070EE15E0B500001000E905D190E9159B2
:1032600006E3300ED88090552A0E915503E2906BFC
:10327000190E916FE66A90C0E6FF91C0E6FF0DEC73
:1032800015F0E552E552E5521200D9CFE6FFE1CF45
:10329000D9FFE652200E0001E76E6019E8AE02D0B9
:1032A000E73402D0E750605D01E2F9D36D50020BC4
:1032B00001E0F5D30001AAAB08D08CEC10F00001BE
:1032C0008769DF0E0001AA15AA6FAAA153D00001D9
:1032D000875113E0090EE66EE66AAE0EE66E060E44
:1032E000E66E0A0EE66E020EE66E92C0E6FF98ECFF
:1032F00010F00B6E070EE15E0B500001876B87C06C
:10330000E6FF000EE66EE66A47EC1FF0E552E55276
:10331000E5520001970E936F000E946F010EEA6A5A
:103320009325E96E9451EA22EF50E66E030EE66EA5
:10333000E66A47EC1FF0E552E552E55293C0E9FF1B
:1033400094C0EAFFEF50E66E040EE66EE66A47ECC4
:103350001FF0E552E552E552E66A97C0E6FF98C0D5
:10336000E6FFA5EC14F0E552E552E552FE0E000131
:10337000AA15AA6FAAA353D00001870513E00A0E6D
:10338000E66EE66A280EE66E230EE66EB00EE66E78
:103390001D0EE66E92C0E6FF86EC12F00B6E070E75
:1033A000E15E0B500001010E876FE66E000EE66EC7
:1033B000E66A47EC1FF0E552E552E5520001970E30
:1033C000936F000E946F010EEA6A9325E96E945193
:1033D000EA22EF50E66E010EE66EE66A47EC1FF059
:1033E000E552E552E55293C0E9FF94C0EAFFEF5081
:1033F000E66E020EE66EE66A47EC1FF0E552E55215
:10340000E552E66A97C0E6FF98C0E6FF0DEC15F0BE
:10341000E552E552E552FD0E0001AA15AA6FAAA5D4
:103420000ED00001875107E1E66A96C0E6FF11EC75
:1034300017F0E552E552FB0E0001AA15AA6FAAA7E4
:103440000ED00001870507E1E66A96C0E6FF5BEC57
:1034500017F0E552E552F70E0001AA15AA6FAAA9C6
:1034600015D099C0E6FF050EE66EE66A47EC1FF040
:10347000E552E552E55299C0E6FFD0EC17F0E5526F
:1034800099C092F0EF0E0001AA15AA6FA651A711DC
:1034900002E1000E08D0A6C0E9FFA7C0EAFFEF5086
:1034A000800B01E0010E000901E0F9D20501005195
:1034B000420A01E1ABD2030A01E10DD2010A01E1A6
:1034C000D8D1680A01E1BED10F0A01E168D1010A31
:1034D00001E112D1030A01E1F0D0010A01E1CFD0EC
:1034E000070A01E1AED0010A01E184D0030A5BE0E2
:1034F000770A01E0C1D2560E406FA00EE66E000EB4
:10350000E66E2BEC1FF0E552E552F350DF6E0B6ACE
:10351000DF50E76E0B18E8AE02D0E73402D0E75078
:103520000B5C2DE2DFCF0CF03E0EE76E0C18E8AE20
:1035300002D00C3403D0E750D8800C5420E30001B3
:10354000866BDF50865D13E28651EA6AA00FE96E52
:10355000000EEA22EF50E66E8629EA6A400FE96E15
:10356000050EEA22E552E750EF6E862BEAD7862950
:10357000EA6A400FE96E050EEA22EF6A02D0050101
:10358000416B0001A851A91102E1000E08D0A8C0AA
:10359000E9FFA9C0EAFFEF50800B01E0010E00092E
:1035A00001E06AD256D2210E406F01510001976F9F
:1035B000986B01C598F0976B050102510B6E0C6A70
:1035C0000B50000197270C509823010E0001AA11FF
:1035D000AA6FA851A91102E1000E08D0A8C0E9FF06
:1035E000A9C0EAFFEF50800B01E0010E000901E0E5
:1035F00043D22FD2220E406F01510001976F986B7A
:1036000001C598F0976B050102510B6E0C6A0B50C7
:10361000000197270C509823020E0001AA11AA6FEF
:10362000A851A91102E1000E08D0A8C0E9FFA9C065
:10363000EAFFEF50800B01E0010E000901E01CD20F
:1036400008D2230E406F015102E0010E01D0000E9E
:103650000001966F040E0001AA11AA6FA851A911CA
:1036600002E1000E08D0A8C0E9FFA9C0EAFFEF50B0
:10367000800B01E0010E000901E0FED1EAD1240E29
:10368000406F015102E0010E01D0000E0001966F63
:10369000080E0001AA11AA6FA851A91102E1000E9B
:1036A00008D0A8C0E9FFA9C0EAFFEF50800B01E0F5
:1036B000010E000901E0E0D1CCD1250E406F01C51B
:1036C00099F0000199513F0802E23F0E996F100EE8
:1036D0000001AA11AA6FA851A91102E1000E08D099
:1036E000A8C0E9FFA9C0EAFFEF50800B01E0010E7E
:1036F000000901E0C1D1ADD1260E406F1EEC18F0DB
:10370000F3CF9AF0F4CF9BF00001F350F4101CE0DB
:103710009AC0E9FF9BC0EAFFEECF8EF0EDCF8FF0AD
:103720009AC0E9FF9BC0EAFF020EE926000EEA22DA
:10373000EFCF88F09AC0E9FF9BC0EAFF030EE926AD
:10374000000EEA22EFCF89F08E518F1114E00501AF
:10375000416B87C042F58FC00BF00C6A0B50436F72
:1037600000018E510501446F92C045F588C046F5B1
:1037700089C047F502D0050141690001A851A9118E
:1037800002E1000E08D0A8C0E9FFA9C0EAFFEF508F
:10379000800B01E0010E000901E06ED15AD1270E25
:1037A000406F27EC18F0F3CF9CF0F4CF9DF00001B0
:1037B000F350F41018E09CC0E9FF9DC0EAFFEECF83
:1037C00090F0EDCF91F09CC0E9FF9DC0EAFF020EA2
:1037D000EB508A6F030EEB508B6F040EEB508C6F27
:1037E000050EEB508D6F9051911118E00501416B62
:1037F00087C042F591C00BF00C6A0B50436F00017B
:1038000090510501446F92C045F58AC046F58BC0C2
:1038100047F58CC048F58DC049F502D005014169D6
:103820000001A851A91102E1000E08D0A8C0E9FFCB
:10383000A9C0EAFFEF50800B01E0010E000901E092
:103840001BD107D1280E406F200E0001AA11AA6FCC
:10385000A851A91102E1000E08D0A8C0E9FFA9C033
:10386000EAFFEF50800B01E0010E000901E004D1F6
:10387000F0D0400E406FABC041F5ACC042F5ADC0DA
:1038800043F5AEC044F5AFC045F5B0C046F5B1C094
:1038900047F5B2C048F5B3C049F5B4C04AF5B5C064
:1038A0004BF5B6C04CF5B7C04DF5B8C04EF5B9C034
:1038B0004FF50001A851A91102E1000E08D0A8C0DF
:1038C000E9FFA9C0EAFFEF50800B01E0010E0009FB
:1038D00001E0D2D0BED0410E406F02C5B6F003C5A4
:1038E000B7F0010540E103C5E6FF010EE66EE66AAA
:1038F00047EC1FF0E552E552E55202C5E6FF020E25
:10390000E66EE66A47EC1FF0E552E552E552050126
:1039100002510001906F916B02C591F0906B05010F
:1039200003510B6E0C6A0B50000190270C50912331
:103930000A0EE66EE66A280EE66E230EE66EB00EFE
:10394000E66E1D0EE66E92C0E6FF86EC12F00B6E80
:10395000070EE15E0B50E66A90C0E6FF91C0E6FFFD
:103960000DEC15F03FD003C5E6FF030EE66EE66AE8
:1039700047EC1FF0E552E552E55202C5E6FF040EA2
:10398000E66EE66A47EC1FF0E552E552E5520501A6
:10399000025100018E6F8F6B02C58FF08E6B050197
:1039A00003510B6E0C6A0B5000018E270C508F23B5
:1039B000090EE66EE66AAE0EE66E060EE66E0A0EBC
:1039C000E66E020EE66E92C0E6FF98EC10F00B6E0B
:1039D000070EE15E0B50E66A8EC0E6FF8FC0E6FF81
:1039E000A5EC14F0E552E552E5520001A851A911E9
:1039F00002E1000E08D0A8C0E9FFA9C0EAFFEF501D
:103A0000800B01E0010E000937E123D0420E406F28
:103A100001C592F001C5E6FF050EE66EE66A47ECC9
:103A20001FF0E552E552E55292C0E6FFD0EC17F0E8
:103A3000E5520001A851A91102E1000E08D0A8C06A
:103A4000E9FFA9C0EAFFEF50800B01E0010E000979
:103A500013E1400EE66E400EE66E050EE66E010EB8
:103A6000E66EE66EAEEC0FF00B6E050EE15E0B50EF
:103A7000F3CFA8F0F4CFA9F0400EE66E000EE66E8C
:103A8000050EE66EE66A010EE66EAEEC0FF00B6E0A
:103A9000050EE15E0B50F3CFA6F0F4CFA7F0E55290
:103AA000E552E7CFD9FF12001200120012001200F7
:103AB000D0EF1DF012001E0EE66E010EE66E0AEC4F
:103AC0000FF0E552E552400EE66E000EE66E050E72
:103AD000E66EE66A010EE66EAEEC0FF00B6E050EBA
:103AE000E15E0B50F3CFA6F0F4CFA7F012006D8487
:103AF0000001080E9E6F070E9F6F9E07000E9F5BD2
:103B00009E519F11FAE16D941200D9CFE6FFE1CFEB
:103B1000D9FFFD0EDBCF06F0FE0EDBCF07F0720EF5
:103B2000061801E1075033E0E868061802E17F0E4D
:103B300007182BE0740E061801E1075024E0750EFB
:103B4000061801E107501DE0730E061801E1075049
:103B500016E0030E061801E107500FE0020E0618EA
:103B600001E1075008E0010E061801E1075001E0ED
:103B700010D0A1DF0FD09EDF0DD09ADF0BD096DFE3
:103B800009D092DF07D091DF05D091DF03D000008C
:103B900001D000D0010E00D0E552E7CFD9FF1200CE
:103BA000040120511F0B010801E01200245101E023
:103BB0001200060E215D1EE12351230A1BE0010ABB
:103BC0000CE0030A17E10001610514E100018C0E0D
:103BD000716F3C0E726F090E09D0000161050AE198
:103BE0000001ED0E716F3C0E726F1D0E746F756BE0
:103BF000C00E736F04012051600BE842E842E842B6
:103C0000E842E842010801E0120021510B0A26E0D7
:103C1000080A19E0090A11E0080A05E00B0A23E086
:103C2000080A21E012000001CE0E716F000E726FC3
:103C3000010E746F756BC10E0FD00001800E736F93
:103C400023C4CEF012000001CF0E716F000E726F10
:103C5000010E746F756B810E736F12000001800E80
:083C6000736F22C4CFF01200C3
:083C6800120100020000000837
:103C7000EA222200020001020001090229000101DA
:103C800000C03209040000020300000009211101F4
:103C90000001221D00070581034000010705010303
:103CA000400001040309041C034200690074002061
:103CB000005400720061006400650020004F006E37
:103CC0000065002A03410053004F004F0056004595
:103CD00000200055005300420020005200610064A3
:103CE0000069006F0020004B00690074000600FFAF
:103CF0000901A10119012940150026FF0075089549
:103D0000408100190129409100C07A3CA33CA73CA6
:023D1000C33CB2
:0E3D12002A0EF66E100EF76E000EF86E00010F
:103D20000900F550BF6F0900F550C06F03E1BF6790
:103D300001D03DD00900F550BA6F0900F550BB6FB6
:103D40000900F550BC6F09000900F550E96E090043
:103D5000F550EA6E090009000900F550BD6F090031
:103D6000F550BE6F09000900F6CFC1F0F7CFC2F0E1
:103D7000F8CFC3F0BAC0F6FFBBC0F7FFBCC0F8FF76
:103D80000001BD5302E1BE5307E00900F550EE6E9D
:103D9000BD07F8E2BE07F9D7C1C0F6FFC2C0F7FF02
:103DA000C3C0F8FF0001BF07000EC05BBFD7120001
:103DB000D9CFE6FFDACFE6FFE1CFD9FFE2CFDAFFD6
:103DC000FD0EDB50C96EC6AE02D0FF0E24D00F0E22
:103DD000C61408080FE00F0EC6140B080BE0C688C7
:103DE0009EA6FED7C750040B03E1C750010B10E09D
:103DF000000E11D00F0EC614080804E00F0EC614F2
:103E00000B0809E1C7B0FED7D9EC1FF0C5AC02D052
:103E1000FE0E01D0000EE552E5CFDAFFE7CFD9FF65
:023E200012008E
:0E3E2200FE0EE3CFE9FFFF0EE3CFEAFFE9CF8C
:103E3000F3FFEACFF4FFFB0EE35003E1FC0EE35087
:103E400009E0FB0EE30602E2FC0EE306FD0EE35082
:103E5000EE6EF1D71200FE0EE3CFE9FFFF0EE3CFC7
:103E6000EAFFF36AF46AEE5203E0F34AF42AFBD75E
:023E700012003E
:0E3E7200D9CFE6FFE1CFD9FFFD0EDB50A96EE0
:103E8000A66AA680A850E552E7CFD9FF1200D9CF85
:103E9000E6FFE1CFD9FFFD0EDB50A96EFC0EDB5033
:103EA000A86E040EA66E550EA76EAA0EA76EA68269
:0C3EB000A6B2FED7E552E7CFD9FF120002
:043EBC00D9CFE6FF75
:103EC000DACFE6FFE1CFD9FFE2CFDAFF3F0EC71628
:103ED000C66AC56AFD0EDB50C612FC0EDB50C71267
:103EE00093829380C68AE552E5CFDAFFE7CFD9FF08
:023EF0001200BE
:0E3EF200FF0EE350106EEF0E01D0F30EE76EE0
:103F0000E72E80EF1FF00C0E0F6EE76AE72E86EFAC
:103F10001FF00F2E85EF1FF0102E7EEF1FF0120006
:103F2000FF0EE350106E480E01D04C0EE76EE72EE8
:103F3000FED7E76AE72EFED7102EF7D70000120053
:103F4000000EF36E00EE00F0080E01D81200EA60D9
:103F500002D0EE6AFCD7F350E9601200EE6AFCD79B
:103F600013EE00F023EE00F0F86A0A9C89EC1EF0D4
:0C3F7000E2EC1FF076EC18F0FBD712001A
:043F7C00FF0EE35001
:103F8000106E1B0E00D001D0200EE76EE72EFED77C
:083F9000102EFAD700D0120038
:083F98000F0EC614080804E036
:103FA0000F0EC6140B0801E1C586C7A0FED7C95085
:023FB0001200FD
:0E3FB2001F0EC514FDE1C750040BFAE112000A
:043FC000C69A12008B
:023FC4001200E9
:0A3FC600312E302E30000000000004
:103FD00000000000000000000000000000000000E1
:0A3FE00000000000000000000000D7
:020000040030CA
:0100000021DE
:010001000EF0
:0100020021DC
:0100030000FC
:0100050000FA
:010006008079
:010008000FE8
:01000900C036
:01000A000FE6
:01000B00E014
:01000C000FE4
:01000D0040B2
:0200000400F00A
:080000000120C603BA30FFFF26
:00000001FF
